{
  "_format": "hh-sol-artifact-1",
  "contractName": "Posts",
  "sourceName": "contracts/Post.sol",
  "abi": [
    {
      "anonymous": false,
      "inputs": [
        {
          "indexed": false,
          "internalType": "uint256",
          "name": "postId",
          "type": "uint256"
        },
        {
          "indexed": true,
          "internalType": "address",
          "name": "author",
          "type": "address"
        },
        {
          "indexed": false,
          "internalType": "string",
          "name": "imageHash",
          "type": "string"
        },
        {
          "indexed": false,
          "internalType": "string",
          "name": "text",
          "type": "string"
        },
        {
          "indexed": false,
          "internalType": "string",
          "name": "postType",
          "type": "string"
        },
        {
          "indexed": false,
          "internalType": "uint256",
          "name": "timestamp",
          "type": "uint256"
        }
      ],
      "name": "PostCreated",
      "type": "event"
    },
    {
      "inputs": [
        {
          "internalType": "string",
          "name": "_imageHash",
          "type": "string"
        },
        {
          "internalType": "string",
          "name": "_text",
          "type": "string"
        },
        {
          "internalType": "string",
          "name": "_postType",
          "type": "string"
        }
      ],
      "name": "createPost",
      "outputs": [],
      "stateMutability": "nonpayable",
      "type": "function"
    },
    {
      "inputs": [
        {
          "internalType": "uint256",
          "name": "_postId",
          "type": "uint256"
        }
      ],
      "name": "getPost",
      "outputs": [
        {
          "internalType": "uint256",
          "name": "",
          "type": "uint256"
        },
        {
          "internalType": "address",
          "name": "",
          "type": "address"
        },
        {
          "internalType": "string",
          "name": "",
          "type": "string"
        },
        {
          "internalType": "string",
          "name": "",
          "type": "string"
        },
        {
          "internalType": "string",
          "name": "",
          "type": "string"
        },
        {
          "internalType": "uint256",
          "name": "",
          "type": "uint256"
        }
      ],
      "stateMutability": "view",
      "type": "function"
    },
    {
      "inputs": [
        {
          "internalType": "address",
          "name": "_user",
          "type": "address"
        }
      ],
      "name": "getUserPosts",
      "outputs": [
        {
          "internalType": "uint256[]",
          "name": "",
          "type": "uint256[]"
        }
      ],
      "stateMutability": "view",
      "type": "function"
    },
    {
      "inputs": [],
      "name": "postCount",
      "outputs": [
        {
          "internalType": "uint256",
          "name": "",
          "type": "uint256"
        }
      ],
      "stateMutability": "view",
      "type": "function"
    },
    {
      "inputs": [
        {
          "internalType": "uint256",
          "name": "",
          "type": "uint256"
        }
      ],
      "name": "posts",
      "outputs": [
        {
          "internalType": "uint256",
          "name": "postId",
          "type": "uint256"
        },
        {
          "internalType": "address",
          "name": "author",
          "type": "address"
        },
        {
          "internalType": "string",
          "name": "imageHash",
          "type": "string"
        },
        {
          "internalType": "string",
          "name": "text",
          "type": "string"
        },
        {
          "internalType": "string",
          "name": "postType",
          "type": "string"
        },
        {
          "internalType": "uint256",
          "name": "timestamp",
          "type": "uint256"
        }
      ],
      "stateMutability": "view",
      "type": "function"
    }
  ],
  "bytecode": "0x608060405234801561001057600080fd5b506114c0806100206000396000f3fe608060405234801561001057600080fd5b50600436106100575760003560e01c80630b1e7f831461005c57806317906c2e1461009157806340731c24146100af5780639a2194a9146100e4578063e8a4a1eb14610114575b600080fd5b61007660048036038101906100719190610a3b565b610130565b60405161008896959493929190610b48565b60405180910390f35b610099610324565b6040516100a69190610bbe565b60405180910390f35b6100c960048036038101906100c49190610a3b565b61032a565b6040516100db96959493929190610b48565b60405180910390f35b6100fe60048036038101906100f99190610c05565b6105f9565b60405161010b9190610cf0565b60405180910390f35b61012e60048036038101906101299190610e47565b6107b7565b005b60006020528060005260406000206000915090508060000154908060010160009054906101000a900473ffffffffffffffffffffffffffffffffffffffff169080600201805461017f90610f1d565b80601f01602080910402602001604051908101604052809291908181526020018280546101ab90610f1d565b80156101f85780601f106101cd576101008083540402835291602001916101f8565b820191906000526020600020905b8154815290600101906020018083116101db57829003601f168201915b50505050509080600301805461020d90610f1d565b80601f016020809104026020016040519081016040528092919081815260200182805461023990610f1d565b80156102865780601f1061025b57610100808354040283529160200191610286565b820191906000526020600020905b81548152906001019060200180831161026957829003601f168201915b50505050509080600401805461029b90610f1d565b80601f01602080910402602001604051908101604052809291908181526020018280546102c790610f1d565b80156103145780601f106102e957610100808354040283529160200191610314565b820191906000526020600020905b8154815290600101906020018083116102f757829003601f168201915b5050505050908060050154905086565b60015481565b60008060608060606000808711801561034557506001548711155b610384576040517f08c379a000000000000000000000000000000000000000000000000000000000815260040161037b90610f9a565b60405180910390fd5b60008060008981526020019081526020016000206040518060c0016040529081600082015481526020016001820160009054906101000a900473ffffffffffffffffffffffffffffffffffffffff1673ffffffffffffffffffffffffffffffffffffffff1673ffffffffffffffffffffffffffffffffffffffff16815260200160028201805461041390610f1d565b80601f016020809104026020016040519081016040528092919081815260200182805461043f90610f1d565b801561048c5780601f106104615761010080835404028352916020019161048c565b820191906000526020600020905b81548152906001019060200180831161046f57829003601f168201915b505050505081526020016003820180546104a590610f1d565b80601f01602080910402602001604051908101604052809291908181526020018280546104d190610f1d565b801561051e5780601f106104f35761010080835404028352916020019161051e565b820191906000526020600020905b81548152906001019060200180831161050157829003601f168201915b5050505050815260200160048201805461053790610f1d565b80601f016020809104026020016040519081016040528092919081815260200182805461056390610f1d565b80156105b05780601f10610585576101008083540402835291602001916105b0565b820191906000526020600020905b81548152906001019060200180831161059357829003601f168201915b505050505081526020016005820154815250509050806000015181602001518260400151836060015184608001518560a001519650965096509650965096505091939550919395565b6060600060015467ffffffffffffffff81111561061957610618610d1c565b5b6040519080825280602002602001820160405280156106475781602001602082028036833780820191505090505b509050600080600190505b6001548111610705578473ffffffffffffffffffffffffffffffffffffffff1660008083815260200190815260200160002060010160009054906101000a900473ffffffffffffffffffffffffffffffffffffffff1673ffffffffffffffffffffffffffffffffffffffff16036106f257808383815181106106d7576106d6610fba565b5b60200260200101818152505081806106ee90611018565b9250505b80806106fd90611018565b915050610652565b5060008167ffffffffffffffff81111561072257610721610d1c565b5b6040519080825280602002602001820160405280156107505781602001602082028036833780820191505090505b50905060005b828110156107ab5783818151811061077157610770610fba565b5b602002602001015182828151811061078c5761078b610fba565b5b60200260200101818152505080806107a390611018565b915050610756565b50809350505050919050565b60008351116107fb576040517f08c379a00000000000000000000000000000000000000000000000000000000081526004016107f2906110ac565b60405180910390fd5b600082511161083f576040517f08c379a000000000000000000000000000000000000000000000000000000000815260040161083690611118565b60405180910390fd5b6000815111610883576040517f08c379a000000000000000000000000000000000000000000000000000000000815260040161087a90611184565b60405180910390fd5b6001600081548092919061089690611018565b91905055506040518060c0016040528060015481526020013373ffffffffffffffffffffffffffffffffffffffff1681526020018481526020018381526020018281526020014281525060008060015481526020019081526020016000206000820151816000015560208201518160010160006101000a81548173ffffffffffffffffffffffffffffffffffffffff021916908373ffffffffffffffffffffffffffffffffffffffff160217905550604082015181600201908161095a9190611350565b5060608201518160030190816109709190611350565b5060808201518160040190816109869190611350565b5060a082015181600501559050503373ffffffffffffffffffffffffffffffffffffffff167f9b28687e6fda33694991b0e01f361f75fdd0088ee56e157da940ad9f6a1ecd03600154858585426040516109e4959493929190611422565b60405180910390a2505050565b6000604051905090565b600080fd5b600080fd5b6000819050919050565b610a1881610a05565b8114610a2357600080fd5b50565b600081359050610a3581610a0f565b92915050565b600060208284031215610a5157610a506109fb565b5b6000610a5f84828501610a26565b91505092915050565b610a7181610a05565b82525050565b600073ffffffffffffffffffffffffffffffffffffffff82169050919050565b6000610aa282610a77565b9050919050565b610ab281610a97565b82525050565b600081519050919050565b600082825260208201905092915050565b60005b83811015610af2578082015181840152602081019050610ad7565b60008484015250505050565b6000601f19601f8301169050919050565b6000610b1a82610ab8565b610b248185610ac3565b9350610b34818560208601610ad4565b610b3d81610afe565b840191505092915050565b600060c082019050610b5d6000830189610a68565b610b6a6020830188610aa9565b8181036040830152610b7c8187610b0f565b90508181036060830152610b908186610b0f565b90508181036080830152610ba48185610b0f565b9050610bb360a0830184610a68565b979650505050505050565b6000602082019050610bd36000830184610a68565b92915050565b610be281610a97565b8114610bed57600080fd5b50565b600081359050610bff81610bd9565b92915050565b600060208284031215610c1b57610c1a6109fb565b5b6000610c2984828501610bf0565b91505092915050565b600081519050919050565b600082825260208201905092915050565b6000819050602082019050919050565b610c6781610a05565b82525050565b6000610c798383610c5e565b60208301905092915050565b6000602082019050919050565b6000610c9d82610c32565b610ca78185610c3d565b9350610cb283610c4e565b8060005b83811015610ce3578151610cca8882610c6d565b9750610cd583610c85565b925050600181019050610cb6565b5085935050505092915050565b60006020820190508181036000830152610d0a8184610c92565b905092915050565b600080fd5b600080fd5b7f4e487b7100000000000000000000000000000000000000000000000000000000600052604160045260246000fd5b610d5482610afe565b810181811067ffffffffffffffff82111715610d7357610d72610d1c565b5b80604052505050565b6000610d866109f1565b9050610d928282610d4b565b919050565b600067ffffffffffffffff821115610db257610db1610d1c565b5b610dbb82610afe565b9050602081019050919050565b82818337600083830152505050565b6000610dea610de584610d97565b610d7c565b905082815260208101848484011115610e0657610e05610d17565b5b610e11848285610dc8565b509392505050565b600082601f830112610e2e57610e2d610d12565b5b8135610e3e848260208601610dd7565b91505092915050565b600080600060608486031215610e6057610e5f6109fb565b5b600084013567ffffffffffffffff811115610e7e57610e7d610a00565b5b610e8a86828701610e19565b935050602084013567ffffffffffffffff811115610eab57610eaa610a00565b5b610eb786828701610e19565b925050604084013567ffffffffffffffff811115610ed857610ed7610a00565b5b610ee486828701610e19565b9150509250925092565b7f4e487b7100000000000000000000000000000000000000000000000000000000600052602260045260246000fd5b60006002820490506001821680610f3557607f821691505b602082108103610f4857610f47610eee565b5b50919050565b7f496e76616c696420706f73742049440000000000000000000000000000000000600082015250565b6000610f84600f83610ac3565b9150610f8f82610f4e565b602082019050919050565b60006020820190508181036000830152610fb381610f77565b9050919050565b7f4e487b7100000000000000000000000000000000000000000000000000000000600052603260045260246000fd5b7f4e487b7100000000000000000000000000000000000000000000000000000000600052601160045260246000fd5b600061102382610a05565b91507fffffffffffffffffffffffffffffffffffffffffffffffffffffffffffffffff820361105557611054610fe9565b5b600182019050919050565b7f496d61676520686173682063616e6e6f7420626520656d707479000000000000600082015250565b6000611096601a83610ac3565b91506110a182611060565b602082019050919050565b600060208201905081810360008301526110c581611089565b9050919050565b7f546578742063616e6e6f7420626520656d707479000000000000000000000000600082015250565b6000611102601483610ac3565b915061110d826110cc565b602082019050919050565b60006020820190508181036000830152611131816110f5565b9050919050565b7f506f737420747970652063616e6e6f7420626520656d70747900000000000000600082015250565b600061116e601983610ac3565b915061117982611138565b602082019050919050565b6000602082019050818103600083015261119d81611161565b9050919050565b60008190508160005260206000209050919050565b60006020601f8301049050919050565b600082821b905092915050565b6000600883026112067fffffffffffffffffffffffffffffffffffffffffffffffffffffffffffffffff826111c9565b61121086836111c9565b95508019841693508086168417925050509392505050565b6000819050919050565b600061124d61124861124384610a05565b611228565b610a05565b9050919050565b6000819050919050565b61126783611232565b61127b61127382611254565b8484546111d6565b825550505050565b600090565b611290611283565b61129b81848461125e565b505050565b5b818110156112bf576112b4600082611288565b6001810190506112a1565b5050565b601f821115611304576112d5816111a4565b6112de846111b9565b810160208510156112ed578190505b6113016112f9856111b9565b8301826112a0565b50505b505050565b600082821c905092915050565b600061132760001984600802611309565b1980831691505092915050565b60006113408383611316565b9150826002028217905092915050565b61135982610ab8565b67ffffffffffffffff81111561137257611371610d1c565b5b61137c8254610f1d565b6113878282856112c3565b600060209050601f8311600181146113ba57600084156113a8578287015190505b6113b28582611334565b86555061141a565b601f1984166113c8866111a4565b60005b828110156113f0578489015182556001820191506020850194506020810190506113cb565b8683101561140d5784890151611409601f891682611316565b8355505b6001600288020188555050505b505050505050565b600060a0820190506114376000830188610a68565b81810360208301526114498187610b0f565b9050818103604083015261145d8186610b0f565b905081810360608301526114718185610b0f565b90506114806080830184610a68565b969550505050505056fea2646970667358221220e6b4d0741adb901d9b8290dfd818d62aa47d0c456c1d33d5e8fdc154f00bcdc764736f6c63430008120033",
  "linkReferences": {},
  "deployedLinkReferences": {}
}